S01E00004763634B5330313830536869667452656769737465722E737265634F
S11300000C949B010C94B8010C94B8010C94B801A5
S11300100C94B8010C94B8010C94B8010C94B80178
S11300200C94B8010C94B8010C94B8010C94B80168
S11300300C94B8010C94B8010C94B8010C94B80158
S11300400C94B8010C94B8010C94B8010C94B80148
S11300500C94B8010C94B8010C94B8010C94B80138
S11300600C94B8010C94B80107634236B79BD8A727
S11300701A39685618AEBAAB558C1D3CB7CC5763C9
S1130080BD6DEDFD753EF6177231BF000000803F77
S113009008000000BE922449123EABAAAA2ABECD93
S11300A0CCCC4C3E00000080BEABAAAAAA3E000005
S11300B00000BF000000803F0000000000084178FD
S11300C0D3BB4387D1133D190E3CC3BD4282AD2B34
S11300D03E68EC8276BED98FE1A93E4C80EFFFBE2C
S11300E001C4FF7F3F000000000005072000000559
S11300F000000000000500002F00000500070007B5
S11301000005147F147F1405242A7F2A1205323433
S1130110081626053649552250050005030000053A
S1130120001C224100050041221C000514083E0861
S1130130140508083E08080500005030000510109A
S1130140101010050060600000052010080402056E
S11301503E5149453E0500427F40000542615149F8
S113016046052141454B31051814127F10052745DA
S1130170454539053C4A49493005017109050305DE
S1130180364949493605064949291E0500363600CF
S11301900005005636000005081422410005141419
S11301A0141414050041221408050201510906051E
S11301B0324959513E057E1111117E057F49494945
S11301C036053E41414122057F4141221C057F49BC
S11301D0494941057F09090901053E4149497A0513
S11301E07F0808087F0500417F4100052040413F0A
S11301F001057F08142241057F40404040057F02ED
S11302000C027F057F0408107F053E4141413E05F5
S11302107F09090906053E4151215E057F09192917
S1130220460546494949310501017F0101053F4021
S113023040403F051F2040201F053F4038403F05F8
S113024063140814630507087008070561514945DC
S11302504305007F41410005552A552A55050041B3
S1130260417F00050402010204054040404040056E
S11302700001020400052054545478057F48444486
S11302803805384444442005384444487F053854EC
S113029054541805087E090102050C5252523E05B9
S11302A07F080404780500447D4000052040443D57
S11302B000057F102844000500417F4000057C04B0
S11302C0180478057C080404780538444444380547
S11302D07C1414140805081414187C057C08040400
S11302E00805485454542005043F444020053C402C
S11302F040207C051C2040201C053C4030403C052F
S11303004428102844050C5050503C054464544C77
S11303104405007F3E1C0805081C3E7F0005087C40
S11303207E7C0805103E7E3E10053E3E3E3E3E0568
S1130330007F3E1C080011241FBECFEFD8E0DEBFB3
S1130340CDBF11E0A0E0B1E0EEE4F4E102C005901D
S11303500D92AE30B107D9F721E0AEE0B1E001C0B3
S11303601D92A031B207E1F70E94AC050C94250A56
S11303700C940000209A219A229A239A2B9A2B9863
S11303802B9A80E090E0089587E090E061E070E0CF
S113039040910F019B01082E02C0220F331F0A94C3
S11303A0E2F7242321F42998289A289804C0299A4A
S11303B0289A28982998019758F727E030E061E0B7
S11303C070E0EEE0F1E04081CB01022E02C0880F24
S11303D0991F0A94E2F7842321F42998289A2898EB
S11303E004C0299A289A289829982150310958F745
S11303F02A9A2A980895611116C021E030E0A901D3
S113040002C0440F551F8A95E2F7CA018095909562
S113041020910E0130910F018223932390930F01B9
S113042080930E01089521E030E0A90102C0440F39
S1130430551F8A95E2F7CA0120910E0130910F01F0
S1130440822B932B90930F0180930E0108956F924A
S11304507F928F929F92AF92BF92CF92DF92EF9250
S1130460FF920F931F93CF93DF93082FC0E0D0E048
S1130470EE24E394F12C0F2EFCE06F2EF02D0F2EC2
S1130480FBE07F2EF02D0F2EFAE08F2EF02D0F2E95
S1130490F9E09F2EF02D0F2EF7E0AF2EF02D68948B
S11304A0BB24B2F80F2EF5E0CF2EF02D0F2EF6E080
S11304B0DF2EF02D10E0C7010C2E02C0880F991F0B
S11304C00A94E2F780239C2FCC2331F0C13041F011
S11304D0C23051F0212F01C02B2D933011F408C0EC
S11304E02C2D943011F408C02D2D953011F409C031
S11304F02A2D963011F407C0292D973029F4262D82
S113050003C0282D01C0272D811106C0612F822F21
S113051090E00E94FB0105C061E0822F90E00E9400
S1130520FB012196C830D10531F60E94C401DF9148
S1130530CF911F910F91FF90EF90DF90CF90BF90DC
S1130540AF909F908F907F906F90089561E080E0CE
S113055090E00E94FB010E94C401089561E08FE0D5
S113056090E00E94FB010E94C401089561E083E0D1
S113057090E00E94FB010E94C401089561E081E0C3
S113058090E00E94FB010E94C401089561E082E0B2
S113059090E00E94FB010E94C401089561E08DE097
S11305A090E00E94FB010E94C401089561E08EE086
S11305B090E00E94FB010E94C401089560E080E085
S11305C090E00E94FB010E94C401089560E08FE066
S11305D090E00E94FB010E94C401089560E083E062
S11305E090E00E94FB010E94C401089560E081E054
S11305F090E00E94FB010E94C401089560E082E043
S113060090E00E94FB010E94C401089560E08DE027
S113061090E00E94FB010E94C401089560E08EE016
S113062090E00E94FB010E94C40108958AE18A952A
S1130630F1F700C00E94B6028AE18A95F1F700C082
S11306400E94EE0208950E94BA010E94C40180E053
S11306500E9427020E94AE020E94B6020E94BE02BD
S11306600E94C6020E94CE020E94D6020E94E602A6
S11306708FE19EE40197F1F700C000000E94AE02F2
S11306809FEF20E782E0915020408040E1F700C0D6
S113069000000E94F6020E9406030E94D6028EE326
S11306A00E9427020E94160380E40E9427020E94EF
S11306B0160388EB0E9427020E94160380EC0E9416
S11306C027020E9416038FE30E9427020E9416034A
S11306D00E94CE020E940E038EE30E9427020E9413
S11306E0160380E40E9427020E94160388EB0E94EE
S11306F027020E94160380EC0E9427020E94160320
S11307008FE30E9427020E9416030895811103C0FB
S11307100E94DE0208950E94A6020895CF93C82F76
S11307200E94F6020E94FE028C2F0E9427020E9461
S11307301603CF910895CF93DF93C82FD62F80341B
S113074028F00E9406030E94D60204C00E94CE0232
S11307500E940E038D2F886B0E948E038C2F806461
S11307600E948E03DF91CF910895CF93C82F0E94EA
S1130770BE020E94FE028C2F0E9427020E941603D2
S1130780CF910895CF93C82F862F642F0E949B0387
S11307908C2F0E94B503CF910895CF92DF92EF92F0
S11307A0FF920F931F93CF93DF93D82FC62FC42E9E
S11307B0D22E602F822F0E949B038FEF0E94B503DD
S11307C081E80E94B503DC9DC00111246C2F70E008
S11307D00E94DB097B0182E08C15C8F412E01D0D38
S11307E0DC0CC2E0D0E0602F812F0E949B03EC164A
S11307F0FD0618F481E80E94B503CE15DF0518F450
S11308008DEB0E94B5031F5F21961D11ECCF602F65
S11308108EEF8C0D0E949B0381E80E94B5038FEF3D
S11308200E94B5038FEC97E00197F1F700C0000038
S1130830DF91CF911F910F91FF90EF90DF90CF90B8
S113084008955F926F927F928F929F92AF92BF9220
S1130850CF92DF92EF92FF920F931F93CF93DF9388
S1130860DC013B015901FB0154913196949131967D
S1130870E4919D012E1B3109E92EE694E694E69459
S1130880CE2CD12CFFEFCF1ADF0A5C9DB0015D9D09
S1130890700D11246F5F7F4F629F8001639F100D65
S11308A0729F100D1124F8013596E60DF71D849101
S11308B0F42E977039F48823A1F1582E540E850133
S11308C011272CC0882379F10A5F1F4F582E540E2C
S11308D04501992412C0F301E00FF11F8491A40192
S11308E04C0F511D6F2D0E94C2030F5F1F4FCF5F2E
S11308F0EC1688F7F3945F14B9F0C0E0ECCFC0E0D5
S1130900D0E0A8014C0F5D1F6F2D80E00E94C20350
S11309102196CE15B0F3F3945F1431F0E110EFCFCC
S1130920FACF542E01C0542E1C141D0484F440E04C
S113093050E0C0E0BB244A0D5B1D652D80E00E94A1
S1130940C203CF5F4C2F50E04C155D05A4F381E04A
S1130950850DDF91CF911F910F91FF90EF90DF9064
S1130960CF90BF90AF909F908F907F906F905F904B
S11309700895EF92FF920F931F93CF93DF93EC01AF
S11309808B01842F79019881992361F02196482F56
S113099050E09701B801892F90E00E9421049991B9
S11309A09111F5CFDF91CF911F910F91FF90EF90AF
S11309B008954F925F926F927F928F929F92AF921F
S11309C0BF92DF92EF92FF920F931F93CF93DF9327
S11309D0CDB7DEB760970FB6F894DEBF0FBECDBFBC
S11309E04A01F22E10E0FE013196AE014F5E5F4FD8
S11309F020E321934E175F07E1F7D12C0F2EFAE085
S1130A004F2E512C612C712CF02DAA24A394B12CBF
S1130A10AC0EBD1EAD0CB11CA30192010E94EF09E6
S1130A20605DF5016083622F732F842F952FD3941B
S1130A30611571058105910541F7FF20A1F0AE2CE8
S1130A40B12CFA94E1E0F0E0EC0FFD1FEF0DF11D85
S1130A5080819501A801B40190E00E942104082F2F
S1130A6010E0F110EECFC80160960FB6F894DEBF27
S1130A700FBECDBFDF91CF911F910F91FF90EF90EB
S1130A80DF90BF90AF909F908F907F906F905F901A
S1130A904F9008952F923F924F925F926F927F9260
S1130AA08F929F92AF92BF92CF92DF92EF92FF927A
S1130AB00F93CF93DF934B015C011A01C22FDE2DFC
S1130AC00E947B062B013C012C2FA1010E94D9041A
S1130AD0AC0155272E2D3F2DB1018EE290E00E94EE
S1130AE02104082F6C2F70E080E090E00E94AA0699
S1130AF09B01AC0160E070E080E291E40E94A507F4
S1130B006B017C01C301B2010E94AA069B01AC01E6
S1130B10C501B4010E940E06A70196010E94380780
S1130B200E94F5070E947B06ED2E2C2FA1010E9446
S1130B30D9049927DF91CF910F91FF90EF90DF9027
S1130B40CF90BF90AF909F908F907F906F905F9069
S1130B504F903F902F9008950E94230381E00E94BC
S1130B60860340E060E08FEF0E94C20340E061E052
S1130B708FEF0E94C20345E061E48FEF0E94C2033D
S1130B8045E062E48FEF0E94C20320E030E040E0E1
S1130B906AEE70E080E091E00E94B904082F10E052
S1130BA0E12CF12C22E04AEE50E06FE872EC89EF80
S1130BB091E40E944A0524E030E040E06AEE70E0EF
S1130BC086E091E00E94B904082F10E06894EE24B6
S1130BD0E2F8F12C22E04AEE50E06FE872EC89EF83
S1130BE091E40E944A052FEF80E792E02150804073
S1130BF09040E1F700C00000C0E005E020E040E8DC
S1130C0064E68C2F0E94CD038FE19EE40197F1F7F7
S1130C1000C00000CF5FC53681F7FFCF5058BB2717
S1130C20AA270E9426060C94FE060E94F00638F0BD
S1130C300E94F70620F039F49F3F19F426F40C942F
S1130C40ED060EF4E095E7FB0C94E706E92F0E940D
S1130C500F0758F3BA17620773078407950720F044
S1130C6079F4A6F50C9431070EF4E0950B2EBA2F07
S1130C70A02D0B01B90190010C01CA01A00111249E
S1130C80FF27591B99F0593F50F4503E68F11A164A
S1130C90F040A22F232F342F4427585FF3CF4695DB
S1130CA037952795A795F0405395C9F77EF41F16FD
S1130CB0BA0B620B730B840BBAF09150A1F0FF0FC7
S1130CC0BB1F661F771F881FC2F70EC0BA0F621FB3
S1130CD0731F841F48F4879577956795B795F795A3
S1130CE09E3F08F0B0CF9395880F08F09927EE0F38
S1130CF09795879508950E94170788F09F5798F055
S1130D00B92F9927B751B0F0E1F0660F771F881F0C
S1130D10991F1AF0BA95C9F714C0B13091F00E9426
S1130D203107B1E008950C943107672F782F882795
S1130D30B85F39F0B93FCCF3869577956795B3954D
S1130D40D9F73EF490958095709561957F4F8F4FBC
S1130D509F4F0895E89409C097FB3EF490958095C1
S1130D60709561957F4F8F4F9F4F9923A9F0F92F6D
S1130D7096E9BB279395F695879577956795B795EB
S1130D80F111F8CFFAF4BB0F11F460FF1BC06F5FD1
S1130D907F4F8F4F9F4F16C0882311F096E911C0E3
S1130DA0772321F09EE8872F762F05C0662371F004
S1130DB096E8862F70E060E02AF09A95660F771F18
S1130DC0881FDAF7880F9695879597F9089597F90C
S1130DD09F6780E870E060E008959FEF80EC0895DD
S1130DE000240A9416161706180609060895002406
S1130DF00A9412161306140605060895092E039480
S1130E00000C11F4882352F0BB0F40F4BF2B11F4F3
S1130E1060FF04C06F5F7F4F8F4F9F4F089557FD52
S1130E209058440F551F59F05F3F71F04795880F54
S1130E3097FB991F61F09F3F79F0879508951216EB
S1130E4013061406551FF2CF4695F1DF08C0161697
S1130E5017061806991FF1CF869571056105089448
S1130E600895E894BB2766277727CB0197F908955F
S1130E700E944B070C94FE060E94F00638F00E9474
S1130E80F70620F0952311F00C94E7060C94ED0678
S1130E9011240C9432070E940F0770F3959FC1F33D
S1130EA0950F50E0551F629FF001729FBB27F00D14
S1130EB0B11D639FAA27F00DB11DAA1F649F662769
S1130EC0B00DA11D661F829F2227B00DA11D621FB8
S1130ED0739FB00DA11D621F839FA00D611D221F72
S1130EE0749F3327A00D611D231F849F600D211D56
S1130EF0822F762F6A2F11249F5750409AF0F1F0D9
S1130F0088234AF0EE0FFF1FBB1F661F771F881F41
S1130F1091505040A9F79E3F510580F00C94E7068C
S1130F200C9432075F3FE4F3983ED4F386957795AB
S1130F306795B795F795E7959F5FC1F7FE2B880FE7
S1130F40911D9695879597F90895FA01EE0FFF1F65
S1130F50309621053105A1F16115710561F48038E0
S1130F60BFE39B0749F168949038810561F08038AC
S1130F70BFEF9B0741F099234AF5FF3FE105310597
S1130F80210519F1E8940894E795D901AA2329F4D5
S1130F90AB2FBE2FF85FD0F310C0FF5F70F4A6959F
S1130FA0E0F7F73950F019F0FF3A38F49F779F9340
S1130FB00DD00F9007FC9058089546F00C94ED0660
S1130FC060E070E080E89FE308954FE79F775F93C8
S1130FD04F933F932F930E94ED082F913F914F9190
S1130FE05F910E9438070C9421080E941707E8F0CB
S1130FF09E37E8F09639B8F49E3848F4672F782F76
S11310008827985FF9CF8695779567959395953955
S1131010D0F3B62FB1706B0F711D811D20F487952D
S11310207795679593950C9453080C946E080C94DB
S1131030320729F416F00C94E7060C9431070C944B
S1131040ED060E941707A8F39638A0F707F80F9249
S1131050E8942BE33AEA48EB5FE70E944E070F92CD
S11310600F920F924DB75EB70F920E943509E8E6D2
S1131070F0E00E947C084F915F91EF91FF91E5951C
S1131080EE1FFF1F49F0FE57E0684427EE0F441F90
S1131090FA95E1F74195550B0E94AF080F9007FEB2
S11310A00C94A3080895882371F4772321F09850B1
S11310B0872B762F07C0662311F499270DC0905112
S11310C0862B70E060E02AF09A95660F771F881FE0
S11310D0DAF7880F9695879597F908959F3F31F031
S11310E0915020F4879577956795B795880F911D52
S11310F09695879597F90895DF93CF931F930F9350
S1131100FF92EF92DF927B018C01689406C0DA2E85
S1131110EF010E944B07FE01E894A59125913591BA
S113112045915591A6F3EF010E942606FE01970111
S1131130A801DA9469F7DF90EF90FF900F911F9167
S1131140CF91DF9108959B01AC0160E070E080E8ED
S11311509FE30C9469090C94E7060C946E080E94B2
S11311601707D8F39923C9F3940F511DA3F3915092
S1131170504094F059F0882332F0660F771F881F8F
S113118091505040C1F79E3F51052CF7880F911D97
S11311909695879597F908955F3FACF0983E9CF03B
S11311A0BB27869577956795B79508F4B1609395B5
S11311B0C1F7BB0F58F711F460FFE8CF6F5F7F4FA3
S11311C08F4F9F4FE3CF0C94320716F00C946E08A8
S11311D00C94ED0668940C94E7060E941707A8F394
S11311E09923C1F3AEF3DF93CF931F930F93FF9231
S11311F0C92FDD2788232AF02197660F771F881FC0
S1131200DAF720E030E040E85FEB9FE3883920F034
S1131210803E38F021968F770E940F06E0E9F0E0D7
S113122004C00E940F06EDEBF0E00E947C088B01E5
S1131230BE01EC01FB2E6F5771097595771F880B62
S1131240990B0E94AC0628E132E741E35FE30E9478
S11312504B07AF2D9801AE01FF900F911F91CF91D5
S1131260DF910E9426060C94FE06FA01DC01AA0F07
S1131270BB1F9B01AC01BF5728F422273327442707
S1131280507820C0B75190F4AB2F00244695379581
S11312902795011CA395D2F3002071F0220F331F70
S11312A0441FB395DAF30ED00C940E066130710529
S11312B0A0E88A07B94630F49B01AC01662777277A
S11312C088279078309621F020833183428353839A
S11312D008950E947D090C94FE060E94F70658F0BA
S11312E00E94F00640F029F45F3F29F00C94E706D1
S11312F051110C9432070C94ED060E940F0768F309
S11313009923B1F3552391F3951B550BBB27AA27BA
S113131062177307840738F09F5F5F4F220F331FF4
S1131320441FAA1FA9F335D00E2E3AF0E0E832D0BC
S113133091505040E695001CCAF72BD0FE2F29D0BF
S1131340660F771F881FBB1F261737074807AB0791
S1131350B0E809F0BB0B802DBF01FF2793585F4F06
S11313603AF09E3F510578F00C94E7060C9432074E
S11313705F3FE4F3983ED4F3869577956795B795E8
S1131380F7959F5FC9F7880F911D9695879597F9F3
S11313900895E1E0660F771F881FBB1F621773076C
S11313A08407BA0720F0621B730B840BBA0BEE1F81
S11313B088F7E095089597FB072E16F4009407D05C
S11313C077FD09D00E94110A07FC05D03EF49095E0
S11313D081959F4F0895709561957F4F0895A1E27F
S11313E01A2EAA1BBB1BFD010DC0AA1FBB1FEE1F9B
S11313F0FF1FA217B307E407F50720F0A21BB30BE6
S1131400E40BF50B661F771F881F991F1A9469F761
S113141060957095809590959B01AC01BD01CF01BD
S11314200895AA1BBB1B51E107C0AA1FBB1FA61727
S1131430B70710F0A61BB70B881F991F5A95A9F779
S111144080959095BC01CD010895F894FFCFDE
S111144E566F6C743A00416D7065723A00007E
S9030000FC
