S01A000047636355415254416E7369446973706C61792E7372656360
S113000019C033C032C031C030C02FC02EC02DC083
S11300102CC02BC02AC029C028C027C026C025C098
S1130020D2C223C0C8C3F5C320C01FC01EC01DC098
S11300301CC01BC011241FBECFEFD2E0DEBFCDBF5A
S113004011E0A0E0B1E0E8E0FFE002C005900D920D
S1130050A239B107D9F721E0A2E9B1E001C01D92AC
S1130060A03EB207E1F719D34DC7CACFCF93DF93B0
S1130070CDB7DEB72A970FB6F894DEBF0FBECDBF5B
S113008085E0E9E0F1E0DE01119601900D928A9598
S1130090E1F7CE01019629D42A960FB6F894DEBF73
S11300A00FBECDBFDF91CF9108950F931F93CF93D0
S11300B0DF93CDB7DEB72A970FB6F894DEBF0FBE35
S11300C0CDBF282F082E000C330B3F938F93862F20
S11300D0062E000C990B9F936F938EE091E09F93F3
S11300E08F938E010F5F1F4F1F930F9333D4C8015B
S11300F0FCD30FB6F894DEBF0FBECDBF2A960FB661
S1130100F894DEBF0FBECDBFDF91CF911F910F9149
S11301100895CF93DF93CDB7DEB72A970FB6F8943F
S1130120DEBF0FBECDBF8BE19BE59A83898383E756
S113013090E09C838B83CE010196D7D32A960FB689
S1130140F894DEBF0FBECDBFDF91CF910895CF935A
S1130150DF93CDB7DEB72A970FB6F894DEBF0FBE94
S1130160CDBF8BE19BE59A83898385E790E09C83EF
S11301708B83CE010196B9D32A960FB6F894DEBFCD
S11301800FBECDBFDF91CF9108950F931F93CF93EF
S1130190DF93CDB7DEB72A970FB6F894DEBF0FBE54
S11301A0CDBF262F062E000C330B3F936F93282FC1
S11301B0082E000C330B3F938F938FE291E09F93B3
S11301C08F938E010F5F1F4F1F930F93C3D3C801EB
S11301D08CD30FB6F894DEBF0FBECDBF2A960FB6F0
S11301E0F894DEBF0FBECDBFDF91CF911F910F9169
S11301F008950F931F93CF93DF93CDB7DEB72A975C
S11302000FB6F894DEBF0FBECDBF242F042E000C12
S1130210330B3F934F93262F062E000C330B3F9343
S11302206F93282F082E000C330B3F938F9388E392
S113023091E09F938F938E010F5F1F4F1F930F9336
S113024089D3C80152D30FB6F894DEBF0FBECDBF19
S11302502A960FB6F894DEBF0FBECDBFDF91CF91C3
S11302601F910F910895EF92FF920F931F93CF93D5
S1130270DF93CDB7DEB72A970FB6F894DEBF0FBE73
S1130280CDBF8B01FB0101900020E9F73197E61BFC
S1130290F70BF695E79598E29E1B292F092E000C83
S11302A0330B3F939F93282F082E000C330B3F935F
S11302B08F938EE091E09F938F93CE0101967C0102
S11302C09F938F9347D3C70110D3C8010ED30FB6A2
S11302D0F894DEBF0FBECDBF2A960FB6F894DEBFEA
S11302E00FBECDBFDF91CF911F910F91FF90EF9083
S11302F00895EF92FF920F931F93CF93DF93CDB79F
S1130300DEB72A970FB6F894DEBF0FBECDBF7A01D1
S1130310282F082E000C330B3F938F93862F062E25
S1130320000C990B9F936F938EE091E09F938F93B2
S11303308E010F5F1F4F1F930F930CD3C801D5D2AB
S1130340C701D3D20FB6F894DEBF0FBECDBF2A9635
S11303500FB6F894DEBF0FBECDBFDF91CF911F91D2
S11303600F91FF90EF900895EF92FF920F931F93D8
S1130370CF93DF93062F660F110B101611064CF462
S11303807C01C0E0D0E0C701B0D22196C017D107EC
S1130390D1F7DF91CF911F910F91FF90EF900895C6
S11303A08F929F92AF92BF92CF92DF92EF92FF9281
S11303B00F931F93CF93DF93CDB7DEB72C970FB670
S11303C0F894DEBF0FBECDBF162FC42ED22E93EBF2
S11303D099831A829B831C829D831E829F83188625
S11303E099871A869B871C86811108C090EB998394
S11303F09B839F839D8399879B8714C0813041F49D
S113040091EB99839B839F839D8399879B8719C0D5
S1130410823041F482EB89838B838F838D83898738
S11304208B871DC0833069F484EC898383EB8B83D1
S11304308AED8F838FEB8D8380EC898789ED8B87A1
S11304400EC0843061F48DEC89838AEB8B8389EC54
S11304508F838BEB8D8388EC89878CEB8B87C0161D
S113046009F475C01D1509F459C06C2D812F1DDECA
S1130470CE0107963AD288248394810E6C2D882D60
S113048014DE99249A949D0C911A692DCE0101963B
S11304906BDF6C2D8D2D09DECE01059626D2EC2C5A
S11304A00C2C000CFF088FEFE81AF80AA02E002E7F
S11304B0000CBB08EA14FB042CF01CC0812E912C08
S11304C001C0812E6E2D812FF0DDCE0103960DD259
S11304D06E2D8D2DEADDCE01039607D28FEFE81A3B
S11304E0F80AEA14FB0474F3C01609F452C01D158B
S11304F009F447C0602F812FD8DDCE010996F5D1CC
S1130500602F882DD2DD692DCE0101962DDF602F5D
S11305108D2DCBDDCE010B96E8D142C06C2D812F01
S1130520C4DD60E0CE0101961FDFEC2C0C2C000C26
S1130530FF088FEFE81AF80AA02E002E000CBB0863
S1130540EA14FB040CF4BACF812E912C1AC06C2D42
S1130550812FABDD9D2C911A692DCE01019604DF0C
S1130560EC2C0C2C000CFF088FEFE81AF80AA02ED4
S1130570002E000CBB08EA14FB040CF4A2CF812E5D
S113058008C0602F882D91DD692DCE010196ECDE27
S113059007C06C2D882D89DD692DCE010196E4DE1E
S11305A02C960FB6F894DEBF0FBECDBFDF91CF916E
S11305B01F910F91FF90EF90DF90CF90BF90AF907D
S11305C09F908F9008951F920F920FB60F9211244F
S11305D02F933F934F935F936F937F938F939F9347
S11305E0AF93BF93EF93FF9380919601813009F00D
S11305F043C08091940190919501019682339105B5
S11306002CF4909395018093940136C01092950137
S1130610109294018091920190919301019690938C
S113062093018093920175DD8091920190919301E1
S113063060E17EE068D1262F372F6CE370E063D150
S11306409F938F937F936F933F932F9384E491E0D1
S11306509F938F938CED91E09F938F937BD16CED5F
S113066071E080E100DE73DD8DB79EB70A960FB6A8
S1130670F8949EBF0FBE8DBFFF91EF91BF91AF91D4
S11306809F918F917F916F915F914F913F912F91A6
S11306900F900FBE0F901F90189514B815B817B887
S11306A018B81AB81BB814BC15BC16BC17BC18BCB7
S11306B010928000109281001092850010928400A4
S11306C01092870010928600109289001092880080
S11306D010928B0010928A001092B6001092B00013
S11306E01092B1001092B2001092B3001092B400B4
S11306F0EEE6F0E0108210926F00109270001092FB
S113070069001DBA109268001092C10080E880BF91
S113071010927B0010927F0010927A001CBC109201
S1130720BC0014BC83E085BD86E086BD17BC18BC44
S1130730C1E0C08387E690E096D0789465E280E0DB
S113074024DD94DC60E280E020DD06E02BE442E07E
S113075065E083E025DE6FE180E017DD63E571E0AD
S113076084E081DD61E281E010DD0DE02BE447E00F
S113077065E084E015DE4AE265E280E03ADD64E7A4
S113078071E089E070DD4FE260E280E032DD64E731
S113079071E08BE068DD48E265E280E02ADD4FE845
S11307A051E064E185E0A5DDC093960175D088230E
S11307B0E9F386D0FBCF1F920F920FB60F9211244C
S11307C02F938F939F93EF93FF938091C000209179
S11307D0C6008C71E0919901EF5FEF7190919801DF
S11307E0E91739F0E0939901F0E0E456FE4F2083D5
S11307F001C082E090919701892B80939701FF912A
S1130800EF919F918F912F910F900FBE0F901F909A
S113081018951F920F920FB60F9211248F939F93E6
S1130820EF93FF9390919B0180919A01981769F03F
S1130830E0919A01EF5FEF71E0939A01F0E0E454E4
S1130840FE4F80818093C60005C0E1ECF0E080811A
S11308508F7D8083FF91EF919F918F910F900FBEB9
S11308600F901F90189510929B0110929A0110926C
S113087099011092980199231CF422E02093C0005E
S113088090789093C5008093C40088E98093C10058
S113089086E08093C2000895909199018091980117
S11308A0981761F0909198019F5F9F71E92FF0E094
S11308B0E456FE4F808190939801089580E0089556
S11308C020919B012F5F2F7190919A012917E1F3D9
S11308D0E22FF0E0E454FE4F808320939B01E1EC8F
S11308E0F0E08081806280830895CF93DF93EC01F0
S11308F08881882329F02196E3DF89918111FCCF37
S1130900DF91CF91089597FB072E16F4009406D03B
S113091077FD08D00BD007FC05D03EF49095819567
S11309209F4F0895709561957F4F0895AA1BBB1B37
S113093051E107C0AA1FBB1FA617B70710F0A61BDB
S1130940B70B881F991F5A95A9F780959095BC01FC
S1130950CD010895AEE0B0E0EFEAF4E0AAC20D895B
S11309601E8986E08C831A8309838FEF9FE79E8319
S11309708D83AE01475E5F4F6F89788DCE010196FE
S113098008D0EF81F885E00FF11F10822E96E4E085
S1130990ACC2ABE0B0E0EEECF4E07DC26C017B01F4
S11309A08A01FC0117821682838181FFBFC1CE01B7
S11309B001963C01F6019381F70193FD859193FF24
S11309C081917F01882309F4ADC1853239F493FD07
S11309D0859193FF81917F01853221F4B60190E0E6
S11309E0C0D1E8CF912C212C312CFFE1F315D8F0A4
S11309F08B3279F038F4803279F08332A1F4232DEC
S1130A0020611DC08D3261F0803369F4232D216093
S1130A1016C0832D8260382EE32DE4603E2E2AC05A
S1130A20F32DF8601DC037FC2DC020ED280F2A30AF
S1130A3040F08E32B9F436FC75C1232D2064322E79
S1130A4019C036FE06C08AE0989E200D1124922E0D
S1130A5011C0EAE02E9E200D1124222EF32DF06207
S1130A603F2E08C08C3621F4832D8068382E02C0B6
S1130A70883641F4F70193FD859193FF81917F01BD
S1130A808111B3CF982F9F7D9554933028F40C5F38
S1130A901F4F9FE399830DC0833631F0833771F084
S1130AA0833509F055C020C0F801808189830E5F29
S1130AB01F4F88248394912C530112C02801F2E023
S1130AC04F0E511CF801A080B18036FE03C0692D81
S1130AD070E002C06FEF7FEFC50138D14C01820195
S1130AE0F32DFF773F2E15C0280122E0420E511C42
S1130AF0F801A080B18036FE03C0692D70E002C009
S1130B006FEF7FEFC50117D14C01F32DF0683F2E35
S1130B10820133FC19C0822D90E088169906A0F456
S1130B20B60180E290E01DD12A94F5CFF50137FC9F
S1130B30859137FE81915F01B60190E012D12110B9
S1130B402A9421E0821A91088114910479F7E1C072
S1130B50843611F0893639F5F80137FE07C0608113
S1130B607181828193810C5F1F4F08C06081718104
S1130B70072E000C880B990B0E5F1F4FF32DFF7689
S1130B803F2E97FF09C090958095709561957F4F92
S1130B908F4F9F4FF0683F2E2AE030E0A3011DD114
S1130BA0882E861844C0853731F4232D2F7EB22E2B
S1130BB02AE030E025C0932D997FB92E8F36C1F0FD
S1130BC018F4883579F0AEC0803719F0883721F0F1
S1130BD0A9C0E92FE061BE2EB4FE0DC0FB2DF46068
S1130BE0BF2E09C034FE0AC0292F2660B22E06C0CB
S1130BF028E030E005C020E130E002C020E132E02E
S1130C00F801B7FE07C060817181828193810C5F16
S1130C101F4F06C06081718180E090E00E5F1F4F1E
S1130C20A301DBD0882E8618FB2DFF773F2E36FEDE
S1130C300DC0232D2E7FA22E891458F434FE0BC030
S1130C4032FC09C0832D8E7EA82E05C0B82CA32C9F
S1130C5003C0B82C01C0B92CA4FE0FC0FE01E80DDE
S1130C60F11D8081803321F49A2D997EA92E09C02B
S1130C70A2FE06C0B394B39404C08A2D867809F00A
S1130C80B394A3FC10C0A0FE06C0B21480F4280CD8
S1130C90922C9B180DC0B21458F4B60180E290E077
S1130CA060D0B394F8CFB21418F42B1802C0982C67
S1130CB0212CA4FE0FC0B60180E390E052D0A2FE26
S1130CC016C0A1FC03C088E790E002C088E590E06C
S1130CD0B6010CC08A2D867851F0A1FE02C08BE2C9
S1130CE001C080E2A7FC8DE2B60190E03AD08914FD
S1130CF030F4B60180E390E034D09A94F8CF8A942B
S1130D00F301E80DF11D8081B60190E02AD0811035
S1130D10F6CF222009F44ECEB60180E290E021D035
S1130D202A94F7CFF6018681978102C08FEF9FEF57
S1130D302B96E2E1CCC0FC0105906150704001109B
S1130D40D8F7809590958E0F9F1F0895FC016150F0
S1130D50704001900110D8F7809590958E0F9F1FD9
S1130D6008950F931F93CF93DF93FB01238121FDFC
S1130D7003C08FEF9FEF2CC022FF16C0468157811E
S1130D80248135814217530744F4A081B1819D0128
S1130D902F5F3F4F318320838C93268137812F5FD0
S1130DA03F4F3783268314C08B01EC01FB01008481
S1130DB0F185E02D0995892BE1F6D80116968D91E0
S1130DC09C911797019617969C938E931697CE0134
S1130DD0DF91CF911F910F910895FA01AA2728302E
S1130DE051F1203181F1E8946F936E7F6E5F7F4FF4
S1130DF08F4F9F4FAF4FB1E03ED0B4E03CD0670F70
S1130E00781F891F9A1FA11D680F791F8A1F911DC2
S1130E10A11D6A0F711D811D911DA11D20D009F412
S1130E2068943F912AE0269F11243019305D319354
S1130E30DEF6CF010895462F4770405D4193B3E03D
S1130E400FD0C9F7F6CF462F4F70405D4A3318F0E4
S1130E50495D31FD4052419302D0A9F7EACFB4E095
S1130E60A6959795879577956795BA95C9F700974D
S1130E706105710508959B01AC010A2E06945795EE
S1130E80479537952795BA95C9F7620F731F841F45
S1130E90951FA01D08952F923F924F925F926F92DB
S1130EA07F928F929F92AF92BF92CF92DF92EF92F6
S1130EB0FF920F931F93CF93DF93CDB7DEB7CA1B77
S1130EC0DB0B0FB6F894DEBF0FBECDBF09942A88A2
S1130ED0398848885F846E847D848C849B84AA844A
S1130EE0B984C884DF80EE80FD800C811B81AA81D7
S1130EF0B981CE0FD11D0FB6F894DEBF0FBECDBFA2
S10B0F00ED010895F894FFCF00
S1130F081B5B3D25693B3768001B5B324A001B5B52
S1130F1825693B256948001B5B256941001B5B2546
S1130F286942001B5B256943001B5B256944001B60
S1130F385B25693B25696D001B5B25693B25693B7E
S1130F4825696D00253032643A253032643A2530FB
S1130F5832640057656C636F6D6520546F20415689
S1130F6852205541525420416E736920446973706C
S1130F786C617900546578742057697468204261FB
S1130F88636B47726F756E6420436F6C6F72003EBB
S1050F983E0015
S9030000FC
